{
  "_format": "hh-sol-artifact-1",
  "contractName": "HeartRateToken",
  "sourceName": "contracts/HeartRateToken.sol",
  "abi": [
    {
      "inputs": [],
      "stateMutability": "nonpayable",
      "type": "constructor"
    },
    {
      "inputs": [
        {
          "internalType": "address",
          "name": "spender",
          "type": "address"
        },
        {
          "internalType": "uint256",
          "name": "allowance",
          "type": "uint256"
        },
        {
          "internalType": "uint256",
          "name": "needed",
          "type": "uint256"
        }
      ],
      "name": "ERC20InsufficientAllowance",
      "type": "error"
    },
    {
      "inputs": [
        {
          "internalType": "address",
          "name": "sender",
          "type": "address"
        },
        {
          "internalType": "uint256",
          "name": "balance",
          "type": "uint256"
        },
        {
          "internalType": "uint256",
          "name": "needed",
          "type": "uint256"
        }
      ],
      "name": "ERC20InsufficientBalance",
      "type": "error"
    },
    {
      "inputs": [
        {
          "internalType": "address",
          "name": "approver",
          "type": "address"
        }
      ],
      "name": "ERC20InvalidApprover",
      "type": "error"
    },
    {
      "inputs": [
        {
          "internalType": "address",
          "name": "receiver",
          "type": "address"
        }
      ],
      "name": "ERC20InvalidReceiver",
      "type": "error"
    },
    {
      "inputs": [
        {
          "internalType": "address",
          "name": "sender",
          "type": "address"
        }
      ],
      "name": "ERC20InvalidSender",
      "type": "error"
    },
    {
      "inputs": [
        {
          "internalType": "address",
          "name": "spender",
          "type": "address"
        }
      ],
      "name": "ERC20InvalidSpender",
      "type": "error"
    },
    {
      "inputs": [
        {
          "internalType": "address",
          "name": "owner",
          "type": "address"
        }
      ],
      "name": "OwnableInvalidOwner",
      "type": "error"
    },
    {
      "inputs": [
        {
          "internalType": "address",
          "name": "account",
          "type": "address"
        }
      ],
      "name": "OwnableUnauthorizedAccount",
      "type": "error"
    },
    {
      "anonymous": false,
      "inputs": [
        {
          "indexed": true,
          "internalType": "address",
          "name": "owner",
          "type": "address"
        },
        {
          "indexed": true,
          "internalType": "address",
          "name": "spender",
          "type": "address"
        },
        {
          "indexed": false,
          "internalType": "uint256",
          "name": "value",
          "type": "uint256"
        }
      ],
      "name": "Approval",
      "type": "event"
    },
    {
      "anonymous": false,
      "inputs": [
        {
          "indexed": true,
          "internalType": "address",
          "name": "previousOwner",
          "type": "address"
        },
        {
          "indexed": true,
          "internalType": "address",
          "name": "newOwner",
          "type": "address"
        }
      ],
      "name": "OwnershipTransferred",
      "type": "event"
    },
    {
      "anonymous": false,
      "inputs": [
        {
          "indexed": true,
          "internalType": "address",
          "name": "from",
          "type": "address"
        },
        {
          "indexed": true,
          "internalType": "address",
          "name": "to",
          "type": "address"
        },
        {
          "indexed": false,
          "internalType": "uint256",
          "name": "value",
          "type": "uint256"
        }
      ],
      "name": "Transfer",
      "type": "event"
    },
    {
      "inputs": [
        {
          "internalType": "address",
          "name": "owner",
          "type": "address"
        },
        {
          "internalType": "address",
          "name": "spender",
          "type": "address"
        }
      ],
      "name": "allowance",
      "outputs": [
        {
          "internalType": "uint256",
          "name": "",
          "type": "uint256"
        }
      ],
      "stateMutability": "view",
      "type": "function"
    },
    {
      "inputs": [
        {
          "internalType": "address",
          "name": "spender",
          "type": "address"
        },
        {
          "internalType": "uint256",
          "name": "value",
          "type": "uint256"
        }
      ],
      "name": "approve",
      "outputs": [
        {
          "internalType": "bool",
          "name": "",
          "type": "bool"
        }
      ],
      "stateMutability": "nonpayable",
      "type": "function"
    },
    {
      "inputs": [
        {
          "internalType": "address",
          "name": "account",
          "type": "address"
        }
      ],
      "name": "balanceOf",
      "outputs": [
        {
          "internalType": "uint256",
          "name": "",
          "type": "uint256"
        }
      ],
      "stateMutability": "view",
      "type": "function"
    },
    {
      "inputs": [],
      "name": "decimals",
      "outputs": [
        {
          "internalType": "uint8",
          "name": "",
          "type": "uint8"
        }
      ],
      "stateMutability": "view",
      "type": "function"
    },
    {
      "inputs": [
        {
          "internalType": "address",
          "name": "",
          "type": "address"
        }
      ],
      "name": "hasClaimedReward",
      "outputs": [
        {
          "internalType": "bool",
          "name": "",
          "type": "bool"
        }
      ],
      "stateMutability": "view",
      "type": "function"
    },
    {
      "inputs": [
        {
          "internalType": "address",
          "name": "user",
          "type": "address"
        }
      ],
      "name": "hasUserClaimed",
      "outputs": [
        {
          "internalType": "bool",
          "name": "",
          "type": "bool"
        }
      ],
      "stateMutability": "view",
      "type": "function"
    },
    {
      "inputs": [
        {
          "internalType": "address",
          "name": "to",
          "type": "address"
        },
        {
          "internalType": "uint256",
          "name": "amount",
          "type": "uint256"
        }
      ],
      "name": "mintTokens",
      "outputs": [],
      "stateMutability": "nonpayable",
      "type": "function"
    },
    {
      "inputs": [],
      "name": "name",
      "outputs": [
        {
          "internalType": "string",
          "name": "",
          "type": "string"
        }
      ],
      "stateMutability": "view",
      "type": "function"
    },
    {
      "inputs": [],
      "name": "owner",
      "outputs": [
        {
          "internalType": "address",
          "name": "",
          "type": "address"
        }
      ],
      "stateMutability": "view",
      "type": "function"
    },
    {
      "inputs": [],
      "name": "renounceOwnership",
      "outputs": [],
      "stateMutability": "nonpayable",
      "type": "function"
    },
    {
      "inputs": [],
      "name": "rewardRate",
      "outputs": [
        {
          "internalType": "uint256",
          "name": "",
          "type": "uint256"
        }
      ],
      "stateMutability": "view",
      "type": "function"
    },
    {
      "inputs": [
        {
          "internalType": "address",
          "name": "user",
          "type": "address"
        }
      ],
      "name": "rewardUser",
      "outputs": [],
      "stateMutability": "nonpayable",
      "type": "function"
    },
    {
      "inputs": [],
      "name": "symbol",
      "outputs": [
        {
          "internalType": "string",
          "name": "",
          "type": "string"
        }
      ],
      "stateMutability": "view",
      "type": "function"
    },
    {
      "inputs": [],
      "name": "totalSupply",
      "outputs": [
        {
          "internalType": "uint256",
          "name": "",
          "type": "uint256"
        }
      ],
      "stateMutability": "view",
      "type": "function"
    },
    {
      "inputs": [
        {
          "internalType": "address",
          "name": "to",
          "type": "address"
        },
        {
          "internalType": "uint256",
          "name": "value",
          "type": "uint256"
        }
      ],
      "name": "transfer",
      "outputs": [
        {
          "internalType": "bool",
          "name": "",
          "type": "bool"
        }
      ],
      "stateMutability": "nonpayable",
      "type": "function"
    },
    {
      "inputs": [
        {
          "internalType": "address",
          "name": "from",
          "type": "address"
        },
        {
          "internalType": "address",
          "name": "to",
          "type": "address"
        },
        {
          "internalType": "uint256",
          "name": "value",
          "type": "uint256"
        }
      ],
      "name": "transferFrom",
      "outputs": [
        {
          "internalType": "bool",
          "name": "",
          "type": "bool"
        }
      ],
      "stateMutability": "nonpayable",
      "type": "function"
    },
    {
      "inputs": [
        {
          "internalType": "address",
          "name": "newOwner",
          "type": "address"
        }
      ],
      "name": "transferOwnership",
      "outputs": [],
      "stateMutability": "nonpayable",
      "type": "function"
    }
  ],
  "bytecode": "0x6080604052678ac7230489e800006007553480156200001d57600080fd5b50336040518060400160405280600e81526020016d2432b0b93a2930ba32aa37b5b2b760911b8152506040518060400160405280600381526020016212149560ea1b815250816003908162000073919062000345565b50600462000082828262000345565b5050506001600160a01b038116620000b557604051631e4fbdf760e01b8152600060048201526024015b60405180910390fd5b620000c081620000dd565b50620000d73369d3c21bcecceda10000006200012f565b62000439565b600580546001600160a01b038381166001600160a01b0319831681179093556040519116919082907f8be0079c531659141344cd1fd0a4f28419497f9722a3daafe3b4186f6b6457e090600090a35050565b6001600160a01b0382166200015b5760405163ec442f0560e01b815260006004820152602401620000ac565b62000169600083836200016d565b5050565b6001600160a01b0383166200019c57806002600082825462000190919062000411565b90915550620002109050565b6001600160a01b03831660009081526020819052604090205481811015620001f15760405163391434e360e21b81526001600160a01b03851660048201526024810182905260448101839052606401620000ac565b6001600160a01b03841660009081526020819052604090209082900390555b6001600160a01b0382166200022e576002805482900390556200024d565b6001600160a01b03821660009081526020819052604090208054820190555b816001600160a01b0316836001600160a01b03167fddf252ad1be2c89b69c2b068fc378daa952ba7f163c4a11628f55a4df523b3ef836040516200029391815260200190565b60405180910390a3505050565b634e487b7160e01b600052604160045260246000fd5b600181811c90821680620002cb57607f821691505b602082108103620002ec57634e487b7160e01b600052602260045260246000fd5b50919050565b601f8211156200034057600081815260208120601f850160051c810160208610156200031b5750805b601f850160051c820191505b818110156200033c5782815560010162000327565b5050505b505050565b81516001600160401b03811115620003615762000361620002a0565b6200037981620003728454620002b6565b84620002f2565b602080601f831160018114620003b15760008415620003985750858301515b600019600386901b1c1916600185901b1785556200033c565b600085815260208120601f198616915b82811015620003e257888601518255948401946001909101908401620003c1565b5085821015620004015787850151600019600388901b60f8161c191681555b5050505050600190811b01905550565b808201808211156200043357634e487b7160e01b600052601160045260246000fd5b92915050565b610a2a80620004496000396000f3fe608060405234801561001057600080fd5b506004361061010b5760003560e01c80638da5cb5b116100a2578063a6afd7db11610071578063a6afd7db14610233578063a9059cbb14610246578063dd62ed3e14610259578063f0dda65c14610292578063f2fde38b146102a557600080fd5b80638da5cb5b146101c157806395d89b41146101dc578063a074696a146101e4578063a195b69c1461020757600080fd5b8063313ce567116100de578063313ce5671461017657806370a0823114610185578063715018a6146101ae5780637b0a47ee146101b857600080fd5b806306fdde0314610110578063095ea7b31461012e57806318160ddd1461015157806323b872dd14610163575b600080fd5b6101186102b8565b6040516101259190610874565b60405180910390f35b61014161013c3660046108de565b61034a565b6040519015158152602001610125565b6002545b604051908152602001610125565b610141610171366004610908565b610364565b60405160128152602001610125565b610155610193366004610944565b6001600160a01b031660009081526020819052604090205490565b6101b6610388565b005b61015560075481565b6005546040516001600160a01b039091168152602001610125565b61011861039c565b6101416101f2366004610944565b60066020526000908152604090205460ff1681565b610141610215366004610944565b6001600160a01b031660009081526006602052604090205460ff1690565b6101b6610241366004610944565b6103ab565b6101416102543660046108de565b61046f565b610155610267366004610966565b6001600160a01b03918216600090815260016020908152604080832093909416825291909152205490565b6101b66102a03660046108de565b61047d565b6101b66102b3366004610944565b610493565b6060600380546102c790610999565b80601f01602080910402602001604051908101604052809291908181526020018280546102f390610999565b80156103405780601f1061031557610100808354040283529160200191610340565b820191906000526020600020905b81548152906001019060200180831161032357829003601f168201915b5050505050905090565b6000336103588185856104d1565b60019150505b92915050565b6000336103728582856104e3565b61037d858585610561565b506001949350505050565b6103906105c0565b61039a60006105ed565b565b6060600480546102c790610999565b6103b36105c0565b6001600160a01b03811660009081526006602052604090205460ff161561042d5760405162461bcd60e51b815260206004820152602360248201527f557365722068617320616c726561647920636c61696d65642074686520726577604482015262185c9960ea1b60648201526084015b60405180910390fd5b61044b6104426005546001600160a01b031690565b82600754610561565b6001600160a01b03166000908152600660205260409020805460ff19166001179055565b600033610358818585610561565b6104856105c0565b61048f828261063f565b5050565b61049b6105c0565b6001600160a01b0381166104c557604051631e4fbdf760e01b815260006004820152602401610424565b6104ce816105ed565b50565b6104de8383836001610675565b505050565b6001600160a01b03838116600090815260016020908152604080832093861683529290522054600019811461055b578181101561054c57604051637dc7a0d960e11b81526001600160a01b03841660048201526024810182905260448101839052606401610424565b61055b84848484036000610675565b50505050565b6001600160a01b03831661058b57604051634b637e8f60e11b815260006004820152602401610424565b6001600160a01b0382166105b55760405163ec442f0560e01b815260006004820152602401610424565b6104de83838361074a565b6005546001600160a01b0316331461039a5760405163118cdaa760e01b8152336004820152602401610424565b600580546001600160a01b038381166001600160a01b0319831681179093556040519116919082907f8be0079c531659141344cd1fd0a4f28419497f9722a3daafe3b4186f6b6457e090600090a35050565b6001600160a01b0382166106695760405163ec442f0560e01b815260006004820152602401610424565b61048f6000838361074a565b6001600160a01b03841661069f5760405163e602df0560e01b815260006004820152602401610424565b6001600160a01b0383166106c957604051634a1406b160e11b815260006004820152602401610424565b6001600160a01b038085166000908152600160209081526040808320938716835292905220829055801561055b57826001600160a01b0316846001600160a01b03167f8c5be1e5ebec7d5bd14f71427d1e84f3dd0314c0f7b2291e5b200ac8c7c3b9258460405161073c91815260200190565b60405180910390a350505050565b6001600160a01b03831661077557806002600082825461076a91906109d3565b909155506107e79050565b6001600160a01b038316600090815260208190526040902054818110156107c85760405163391434e360e21b81526001600160a01b03851660048201526024810182905260448101839052606401610424565b6001600160a01b03841660009081526020819052604090209082900390555b6001600160a01b03821661080357600280548290039055610822565b6001600160a01b03821660009081526020819052604090208054820190555b816001600160a01b0316836001600160a01b03167fddf252ad1be2c89b69c2b068fc378daa952ba7f163c4a11628f55a4df523b3ef8360405161086791815260200190565b60405180910390a3505050565b600060208083528351808285015260005b818110156108a157858101830151858201604001528201610885565b506000604082860101526040601f19601f8301168501019250505092915050565b80356001600160a01b03811681146108d957600080fd5b919050565b600080604083850312156108f157600080fd5b6108fa836108c2565b946020939093013593505050565b60008060006060848603121561091d57600080fd5b610926846108c2565b9250610934602085016108c2565b9150604084013590509250925092565b60006020828403121561095657600080fd5b61095f826108c2565b9392505050565b6000806040838503121561097957600080fd5b610982836108c2565b9150610990602084016108c2565b90509250929050565b600181811c908216806109ad57607f821691505b6020821081036109cd57634e487b7160e01b600052602260045260246000fd5b50919050565b8082018082111561035e57634e487b7160e01b600052601160045260246000fdfea2646970667358221220fcbb6e9f099fa726c7b152092f2f33f41a0195f24ec3b1f1a21f472dcf4191d864736f6c63430008140033",
  "linkReferences": {},
  "deployedLinkReferences": {}
}