{
  "_format": "hh-sol-artifact-1",
  "contractName": "HeartRateAlert",
  "sourceName": "contracts/HeartRateAlert.sol",
  "abi": [
    {
      "anonymous": false,
      "inputs": [
        {
          "indexed": true,
          "internalType": "address",
          "name": "user",
          "type": "address"
        },
        {
          "indexed": true,
          "internalType": "address",
          "name": "grantedTo",
          "type": "address"
        }
      ],
      "name": "AccessGranted",
      "type": "event"
    },
    {
      "anonymous": false,
      "inputs": [
        {
          "indexed": true,
          "internalType": "address",
          "name": "user",
          "type": "address"
        },
        {
          "indexed": true,
          "internalType": "address",
          "name": "revokedFrom",
          "type": "address"
        }
      ],
      "name": "AccessRevoked",
      "type": "event"
    },
    {
      "anonymous": false,
      "inputs": [
        {
          "indexed": true,
          "internalType": "address",
          "name": "user",
          "type": "address"
        },
        {
          "indexed": false,
          "internalType": "uint256",
          "name": "rate",
          "type": "uint256"
        },
        {
          "indexed": false,
          "internalType": "string",
          "name": "alertType",
          "type": "string"
        }
      ],
      "name": "AlertTriggered",
      "type": "event"
    },
    {
      "anonymous": false,
      "inputs": [
        {
          "indexed": true,
          "internalType": "address",
          "name": "user",
          "type": "address"
        },
        {
          "indexed": false,
          "internalType": "uint256",
          "name": "rate",
          "type": "uint256"
        },
        {
          "indexed": false,
          "internalType": "uint256",
          "name": "timestamp",
          "type": "uint256"
        }
      ],
      "name": "HeartRateAdded",
      "type": "event"
    },
    {
      "anonymous": false,
      "inputs": [
        {
          "indexed": true,
          "internalType": "address",
          "name": "user",
          "type": "address"
        },
        {
          "indexed": false,
          "internalType": "uint256",
          "name": "rate",
          "type": "uint256"
        },
        {
          "indexed": false,
          "internalType": "string",
          "name": "suggestion",
          "type": "string"
        }
      ],
      "name": "Suggestion",
      "type": "event"
    },
    {
      "inputs": [
        {
          "internalType": "uint256",
          "name": "_rate",
          "type": "uint256"
        }
      ],
      "name": "addHeartRate",
      "outputs": [],
      "stateMutability": "nonpayable",
      "type": "function"
    },
    {
      "inputs": [
        {
          "internalType": "uint256",
          "name": "_rate",
          "type": "uint256"
        },
        {
          "internalType": "bool",
          "name": "isManual",
          "type": "bool"
        }
      ],
      "name": "addHeartRateWithAlert",
      "outputs": [],
      "stateMutability": "nonpayable",
      "type": "function"
    },
    {
      "inputs": [
        {
          "internalType": "address",
          "name": "_user",
          "type": "address"
        }
      ],
      "name": "getHeartRateCount",
      "outputs": [
        {
          "internalType": "uint256",
          "name": "",
          "type": "uint256"
        }
      ],
      "stateMutability": "view",
      "type": "function"
    },
    {
      "inputs": [
        {
          "internalType": "address",
          "name": "_user",
          "type": "address"
        }
      ],
      "name": "getThresholds",
      "outputs": [
        {
          "internalType": "uint256",
          "name": "upper",
          "type": "uint256"
        },
        {
          "internalType": "uint256",
          "name": "lower",
          "type": "uint256"
        }
      ],
      "stateMutability": "view",
      "type": "function"
    },
    {
      "inputs": [
        {
          "internalType": "address",
          "name": "_person",
          "type": "address"
        }
      ],
      "name": "grantAccess",
      "outputs": [],
      "stateMutability": "nonpayable",
      "type": "function"
    },
    {
      "inputs": [
        {
          "internalType": "address",
          "name": "",
          "type": "address"
        },
        {
          "internalType": "address",
          "name": "",
          "type": "address"
        }
      ],
      "name": "permissions",
      "outputs": [
        {
          "internalType": "bool",
          "name": "",
          "type": "bool"
        }
      ],
      "stateMutability": "view",
      "type": "function"
    },
    {
      "inputs": [
        {
          "internalType": "address",
          "name": "_person",
          "type": "address"
        }
      ],
      "name": "revokeAccess",
      "outputs": [],
      "stateMutability": "nonpayable",
      "type": "function"
    },
    {
      "inputs": [
        {
          "internalType": "uint256",
          "name": "_upper",
          "type": "uint256"
        },
        {
          "internalType": "uint256",
          "name": "_lower",
          "type": "uint256"
        }
      ],
      "name": "setThresholds",
      "outputs": [],
      "stateMutability": "nonpayable",
      "type": "function"
    },
    {
      "inputs": [
        {
          "internalType": "address",
          "name": "_user",
          "type": "address"
        }
      ],
      "name": "viewHeartRate",
      "outputs": [
        {
          "components": [
            {
              "internalType": "uint256",
              "name": "rate",
              "type": "uint256"
            },
            {
              "internalType": "uint256",
              "name": "timestamp",
              "type": "uint256"
            }
          ],
          "internalType": "struct HeartRateStorage.HeartRate[]",
          "name": "",
          "type": "tuple[]"
        }
      ],
      "stateMutability": "view",
      "type": "function"
    }
  ],
  "bytecode": "0x608060405234801561001057600080fd5b5061088a806100206000396000f3fe608060405234801561001057600080fd5b50600436106100935760003560e01c806385e685311161006657806385e6853114610109578063a38464a81461011c578063a8db6f6b1461013c578063b812f0461461015d578063e3064a771461017057610093565b80630ae5e739146100985780631f9838b5146100ad5780631ff1f428146100d657806346328dd6146100f6575b600080fd5b6100ab6100a63660046105b6565b610183565b005b6100c06100bb3660046105d7565b6101de565b6040516100cd91906106c4565b60405180910390f35b6100e96100e43660046105b6565b6101fe565b6040516100cd9190610675565b6100ab610104366004610609565b6102d0565b6100ab6101173660046105b6565b610350565b61012f61012a3660046105b6565b6103a6565b6040516100cd9190610747565b61014f61014a3660046105b6565b6103c1565b6040516100cd929190610846565b6100ab61016b366004610621565b6103e9565b6100ab61017e366004610654565b61055f565b3360008181526001602081815260408084206001600160a01b0387168086529252808420805460ff191690931790925590519092917f9f520b3bfc56d06f7065d10b4683b3f57ac8895d5026cd176dee95ce1454cb8d91a350565b600160209081526000928352604080842090915290825290205460ff1681565b6001600160a01b038116600090815260016020908152604080832033845290915290205460609060ff1661024d5760405162461bcd60e51b815260040161024490610720565b60405180910390fd5b6001600160a01b03821660009081526020818152604080832080548251818502810185019093528083529193909284015b828210156102c45783829060005260206000209060020201604051806040016040529081600082015481526020016001820154815250508152602001906001019061027e565b5050505090505b919050565b33600081815260208181526040808320815180830183528681524281850181815283546001818101865594885295909620915160029095029091019384559351920191909155517f924a66f0d3cc17496fb3db7597695dd1e7a1d03f55d54d6297627fd9f20dc42f9161034591859190610846565b60405180910390a250565b3360008181526001602090815260408083206001600160a01b0386168085529252808320805460ff19169055519092917f825c8be24eb0df19500f63e86c29e7d0d951e73056b889b891d85e40938d9b6e91a350565b6001600160a01b031660009081526020819052604090205490565b6001600160a01b03166000908152600260209081526040808320546003909252909120549091565b6103f2826102d0565b806104b2573360009081526002602052604090205482111561045457336001600160a01b03167f5a1ec692cef6a04914d6790b17ac3cc1e6d129abf2129c7f41ab6ef693e38fea836040516104479190610812565b60405180910390a26104ad565b336000908152600360205260409020548210156104ad57336001600160a01b03167f5a1ec692cef6a04914d6790b17ac3cc1e6d129abf2129c7f41ab6ef693e38fea836040516104a49190610750565b60405180910390a25b61055b565b3360009081526002602052604090205482111561050257336001600160a01b03167fd195870c6df788732cac1ad1142d8cb7528349b5dd67123867b192f758296d10836040516104a49190610783565b3360009081526003602052604090205482101561055b57336001600160a01b03167fd195870c6df788732cac1ad1142d8cb7528349b5dd67123867b192f758296d108360405161055291906107c1565b60405180910390a25b5050565b81811061057e5760405162461bcd60e51b8152600401610244906106cf565b33600090815260026020908152604080832094909455600390529190912055565b80356001600160a01b03811681146102cb57600080fd5b6000602082840312156105c7578081fd5b6105d08261059f565b9392505050565b600080604083850312156105e9578081fd5b6105f28361059f565b91506106006020840161059f565b90509250929050565b60006020828403121561061a578081fd5b5035919050565b60008060408385031215610633578182fd5b8235915060208301358015158114610649578182fd5b809150509250929050565b60008060408385031215610666578182fd5b50508035926020909101359150565b602080825282518282018190526000919060409081850190868401855b828110156106b757815180518552860151868501529284019290850190600101610692565b5091979650505050505050565b901515815260200190565b60208082526031908201527f4c6f776572207468726573686f6c64206d757374206265206c657373207468616040820152701b881d5c1c195c881d1a1c995cda1bdb19607a1b606082015260800190565b6020808252600d908201526c1058d8d95cdcc811195b9a5959609a1b604082015260600190565b90815260200190565b908152604060208201819052601290820152714865617274207261746520746f6f206c6f7760701b606082015260800190565b908152604060208201819052601d908201527f436f6e736964657220636f6e73756c74696e67206120646f63746f722e000000606082015260800190565b908152604060208201819052602a908201527f4d6f6e69746f7220666f722064697a7a696e657373206f7220636f6e746163746060820152691030903237b1ba37b91760b11b608082015260a00190565b90815260406020820181905260139082015272090cac2e4e840e4c2e8ca40e8dede40d0d2ced606b1b606082015260800190565b91825260208201526040019056fea264697066735822122012171330ad5a99d908d5a2a5e1ca9f4cabd99bff931d388c4966627681dc3e9864736f6c63430008000033",
  "linkReferences": {},
  "deployedLinkReferences": {}
}