{
  "_format": "hh-sol-artifact-1",
  "contractName": "HeartRateStorage",
  "sourceName": "contracts/HeartRateStorage.sol",
  "abi": [
    {
      "anonymous": false,
      "inputs": [
        {
          "indexed": true,
          "internalType": "address",
          "name": "user",
          "type": "address"
        },
        {
          "indexed": true,
          "internalType": "address",
          "name": "grantedTo",
          "type": "address"
        }
      ],
      "name": "AccessGranted",
      "type": "event"
    },
    {
      "anonymous": false,
      "inputs": [
        {
          "indexed": true,
          "internalType": "address",
          "name": "user",
          "type": "address"
        },
        {
          "indexed": true,
          "internalType": "address",
          "name": "revokedFrom",
          "type": "address"
        }
      ],
      "name": "AccessRevoked",
      "type": "event"
    },
    {
      "anonymous": false,
      "inputs": [
        {
          "indexed": true,
          "internalType": "address",
          "name": "user",
          "type": "address"
        },
        {
          "indexed": false,
          "internalType": "uint256",
          "name": "rate",
          "type": "uint256"
        },
        {
          "indexed": false,
          "internalType": "uint256",
          "name": "timestamp",
          "type": "uint256"
        }
      ],
      "name": "HeartRateAdded",
      "type": "event"
    },
    {
      "inputs": [
        {
          "internalType": "uint256",
          "name": "_rate",
          "type": "uint256"
        }
      ],
      "name": "addHeartRate",
      "outputs": [],
      "stateMutability": "nonpayable",
      "type": "function"
    },
    {
      "inputs": [
        {
          "internalType": "address",
          "name": "_user",
          "type": "address"
        }
      ],
      "name": "getHeartRateCount",
      "outputs": [
        {
          "internalType": "uint256",
          "name": "",
          "type": "uint256"
        }
      ],
      "stateMutability": "view",
      "type": "function"
    },
    {
      "inputs": [
        {
          "internalType": "address",
          "name": "_person",
          "type": "address"
        }
      ],
      "name": "grantAccess",
      "outputs": [],
      "stateMutability": "nonpayable",
      "type": "function"
    },
    {
      "inputs": [
        {
          "internalType": "address",
          "name": "",
          "type": "address"
        },
        {
          "internalType": "address",
          "name": "",
          "type": "address"
        }
      ],
      "name": "permissions",
      "outputs": [
        {
          "internalType": "bool",
          "name": "",
          "type": "bool"
        }
      ],
      "stateMutability": "view",
      "type": "function"
    },
    {
      "inputs": [
        {
          "internalType": "address",
          "name": "_person",
          "type": "address"
        }
      ],
      "name": "revokeAccess",
      "outputs": [],
      "stateMutability": "nonpayable",
      "type": "function"
    },
    {
      "inputs": [
        {
          "internalType": "address",
          "name": "_user",
          "type": "address"
        }
      ],
      "name": "viewHeartRate",
      "outputs": [
        {
          "components": [
            {
              "internalType": "uint256",
              "name": "rate",
              "type": "uint256"
            },
            {
              "internalType": "uint256",
              "name": "timestamp",
              "type": "uint256"
            }
          ],
          "internalType": "struct HeartRateStorage.HeartRate[]",
          "name": "",
          "type": "tuple[]"
        }
      ],
      "stateMutability": "view",
      "type": "function"
    }
  ],
  "bytecode": "0x608060405234801561001057600080fd5b50610499806100206000396000f3fe608060405234801561001057600080fd5b50600436106100625760003560e01c80630ae5e739146100675780631f9838b51461007c5780631ff1f428146100a557806346328dd6146100c557806385e68531146100d8578063a38464a8146100eb575b600080fd5b61007a610075366004610360565b61010b565b005b61008f61008a366004610381565b610166565b60405161009c919061041a565b60405180910390f35b6100b86100b3366004610360565b610186565b60405161009c91906103cb565b61007a6100d33660046103b3565b610258565b61007a6100e6366004610360565b6102d8565b6100fe6100f9366004610360565b61032e565b60405161009c919061044c565b3360008181526001602081815260408084206001600160a01b0387168086529252808420805460ff191690931790925590519092917f9f520b3bfc56d06f7065d10b4683b3f57ac8895d5026cd176dee95ce1454cb8d91a350565b600160209081526000928352604080842090915290825290205460ff1681565b6001600160a01b038116600090815260016020908152604080832033845290915290205460609060ff166101d55760405162461bcd60e51b81526004016101cc90610425565b60405180910390fd5b6001600160a01b03821660009081526020818152604080832080548251818502810185019093528083529193909284015b8282101561024c57838290600052602060002090600202016040518060400160405290816000820154815260200160018201548152505081526020019060010190610206565b5050505090505b919050565b33600081815260208181526040808320815180830183528681524281850181815283546001818101865594885295909620915160029095029091019384559351920191909155517f924a66f0d3cc17496fb3db7597695dd1e7a1d03f55d54d6297627fd9f20dc42f916102cd91859190610455565b60405180910390a250565b3360008181526001602090815260408083206001600160a01b0386168085529252808320805460ff19169055519092917f825c8be24eb0df19500f63e86c29e7d0d951e73056b889b891d85e40938d9b6e91a350565b6001600160a01b031660009081526020819052604090205490565b80356001600160a01b038116811461025357600080fd5b600060208284031215610371578081fd5b61037a82610349565b9392505050565b60008060408385031215610393578081fd5b61039c83610349565b91506103aa60208401610349565b90509250929050565b6000602082840312156103c4578081fd5b5035919050565b602080825282518282018190526000919060409081850190868401855b8281101561040d578151805185528601518685015292840192908501906001016103e8565b5091979650505050505050565b901515815260200190565b6020808252600d908201526c1058d8d95cdcc811195b9a5959609a1b604082015260600190565b90815260200190565b91825260208201526040019056fea2646970667358221220e929528287ea68fac2177f60b9ea03cbf101349ec26ab644aa538a4a0241638164736f6c63430008000033",
  "linkReferences": {},
  "deployedLinkReferences": {}
}